{
  "_format": "hh-sol-artifact-1",
  "contractName": "GAB",
  "sourceName": "contracts/GAB.sol",
  "abi": [
    {
      "inputs": [
        {
          "internalType": "string",
          "name": "",
          "type": "string"
        }
      ],
      "name": "records",
      "outputs": [
        {
          "internalType": "address",
          "name": "uploader",
          "type": "address"
        },
        {
          "internalType": "uint256",
          "name": "timestamp",
          "type": "uint256"
        }
      ],
      "stateMutability": "view",
      "type": "function"
    },
    {
      "inputs": [
        {
          "internalType": "string",
          "name": "hash",
          "type": "string"
        }
      ],
      "name": "registerContent",
      "outputs": [],
      "stateMutability": "nonpayable",
      "type": "function"
    },
    {
      "inputs": [
        {
          "internalType": "string",
          "name": "hash",
          "type": "string"
        }
      ],
      "name": "verifyContent",
      "outputs": [
        {
          "internalType": "address",
          "name": "",
          "type": "address"
        },
        {
          "internalType": "uint256",
          "name": "",
          "type": "uint256"
        }
      ],
      "stateMutability": "view",
      "type": "function"
    }
  ],
  "bytecode": "0x608060405234801561001057600080fd5b5061063f806100206000396000f3fe608060405234801561001057600080fd5b50600436106100415760003560e01c806322453b3a14610046578063541e771d14610077578063ac4d9cb2146100a8575b600080fd5b610060600480360381019061005b9190610438565b6100c4565b60405161006e9291906104db565b60405180910390f35b610091600480360381019061008c9190610438565b610134565b60405161009f9291906104db565b60405180910390f35b6100c260048036038101906100bd9190610438565b61018e565b005b6000806000836040516100d79190610575565b908152602001604051809103902060000160009054906101000a900473ffffffffffffffffffffffffffffffffffffffff166000846040516101199190610575565b90815260200160405180910390206001015491509150915091565b6000818051602081018201805184825260208301602085012081835280955050505050506000915090508060000160009054906101000a900473ffffffffffffffffffffffffffffffffffffffff16908060010154905082565b600073ffffffffffffffffffffffffffffffffffffffff166000826040516101b69190610575565b908152602001604051809103902060000160009054906101000a900473ffffffffffffffffffffffffffffffffffffffff1673ffffffffffffffffffffffffffffffffffffffff161461023e576040517f08c379a0000000000000000000000000000000000000000000000000000000008152600401610235906105e9565b60405180910390fd5b60405180604001604052803373ffffffffffffffffffffffffffffffffffffffff168152602001428152506000826040516102799190610575565b908152602001604051809103902060008201518160000160006101000a81548173ffffffffffffffffffffffffffffffffffffffff021916908373ffffffffffffffffffffffffffffffffffffffff1602179055506020820151816001015590505050565b6000604051905090565b600080fd5b600080fd5b600080fd5b600080fd5b6000601f19601f8301169050919050565b7f4e487b7100000000000000000000000000000000000000000000000000000000600052604160045260246000fd5b610345826102fc565b810181811067ffffffffffffffff821117156103645761036361030d565b5b80604052505050565b60006103776102de565b9050610383828261033c565b919050565b600067ffffffffffffffff8211156103a3576103a261030d565b5b6103ac826102fc565b9050602081019050919050565b82818337600083830152505050565b60006103db6103d684610388565b61036d565b9050828152602081018484840111156103f7576103f66102f7565b5b6104028482856103b9565b509392505050565b600082601f83011261041f5761041e6102f2565b5b813561042f8482602086016103c8565b91505092915050565b60006020828403121561044e5761044d6102e8565b5b600082013567ffffffffffffffff81111561046c5761046b6102ed565b5b6104788482850161040a565b91505092915050565b600073ffffffffffffffffffffffffffffffffffffffff82169050919050565b60006104ac82610481565b9050919050565b6104bc816104a1565b82525050565b6000819050919050565b6104d5816104c2565b82525050565b60006040820190506104f060008301856104b3565b6104fd60208301846104cc565b9392505050565b600081519050919050565b600081905092915050565b60005b8381101561053857808201518184015260208101905061051d565b60008484015250505050565b600061054f82610504565b610559818561050f565b935061056981856020860161051a565b80840191505092915050565b60006105818284610544565b915081905092915050565b600082825260208201905092915050565b7f416c726561647920726567697374657265640000000000000000000000000000600082015250565b60006105d360128361058c565b91506105de8261059d565b602082019050919050565b60006020820190508181036000830152610602816105c6565b905091905056fea2646970667358221220d8458164f365c23d5db7351d24195e69bb67dbac53c3425bb2686fba26a8c95664736f6c63430008140033",
  "linkReferences": {},
  "deployedLinkReferences": {}
}