{
  "_format": "hh-sol-artifact-1",
  "contractName": "ESGGovernance",
  "sourceName": "contracts/ESGGovernance.sol",
  "abi": [
    {
      "inputs": [],
      "stateMutability": "nonpayable",
      "type": "constructor"
    },
    {
      "anonymous": false,
      "inputs": [
        {
          "indexed": true,
          "internalType": "bytes32",
          "name": "contentHash",
          "type": "bytes32"
        },
        {
          "indexed": true,
          "internalType": "address",
          "name": "auditor",
          "type": "address"
        },
        {
          "indexed": false,
          "internalType": "string",
          "name": "reason",
          "type": "string"
        },
        {
          "indexed": false,
          "internalType": "uint256",
          "name": "timestamp",
          "type": "uint256"
        }
      ],
      "name": "AttestationRevoked",
      "type": "event"
    },
    {
      "anonymous": false,
      "inputs": [
        {
          "indexed": true,
          "internalType": "address",
          "name": "auditor",
          "type": "address"
        },
        {
          "indexed": false,
          "internalType": "bool",
          "name": "allowed",
          "type": "bool"
        }
      ],
      "name": "AuditorSet",
      "type": "event"
    },
    {
      "anonymous": false,
      "inputs": [
        {
          "indexed": true,
          "internalType": "address",
          "name": "prevOwner",
          "type": "address"
        },
        {
          "indexed": true,
          "internalType": "address",
          "name": "newOwner",
          "type": "address"
        }
      ],
      "name": "OwnerTransferred",
      "type": "event"
    },
    {
      "anonymous": false,
      "inputs": [
        {
          "indexed": true,
          "internalType": "bytes32",
          "name": "contentHash",
          "type": "bytes32"
        },
        {
          "indexed": true,
          "internalType": "address",
          "name": "auditor",
          "type": "address"
        },
        {
          "indexed": false,
          "internalType": "bool",
          "name": "passed",
          "type": "bool"
        },
        {
          "indexed": false,
          "internalType": "string",
          "name": "reason",
          "type": "string"
        },
        {
          "indexed": false,
          "internalType": "uint256",
          "name": "timestamp",
          "type": "uint256"
        }
      ],
      "name": "ReportAttested",
      "type": "event"
    },
    {
      "anonymous": false,
      "inputs": [
        {
          "indexed": true,
          "internalType": "bytes32",
          "name": "contentHash",
          "type": "bytes32"
        },
        {
          "indexed": true,
          "internalType": "address",
          "name": "sender",
          "type": "address"
        },
        {
          "indexed": false,
          "internalType": "uint256",
          "name": "timestamp",
          "type": "uint256"
        }
      ],
      "name": "ReportRegistered",
      "type": "event"
    },
    {
      "anonymous": false,
      "inputs": [
        {
          "indexed": false,
          "internalType": "uint256",
          "name": "amount",
          "type": "uint256"
        }
      ],
      "name": "RewardAmountSet",
      "type": "event"
    },
    {
      "anonymous": false,
      "inputs": [
        {
          "indexed": true,
          "internalType": "bytes32",
          "name": "contentHash",
          "type": "bytes32"
        },
        {
          "indexed": true,
          "internalType": "address",
          "name": "to",
          "type": "address"
        },
        {
          "indexed": false,
          "internalType": "uint256",
          "name": "amount",
          "type": "uint256"
        }
      ],
      "name": "RewardMinted",
      "type": "event"
    },
    {
      "anonymous": false,
      "inputs": [
        {
          "indexed": true,
          "internalType": "address",
          "name": "token",
          "type": "address"
        }
      ],
      "name": "RewardTokenSet",
      "type": "event"
    },
    {
      "inputs": [
        {
          "internalType": "bytes32",
          "name": "contentHash",
          "type": "bytes32"
        },
        {
          "internalType": "bool",
          "name": "passed",
          "type": "bool"
        },
        {
          "internalType": "string",
          "name": "reason",
          "type": "string"
        }
      ],
      "name": "attestReport",
      "outputs": [],
      "stateMutability": "nonpayable",
      "type": "function"
    },
    {
      "inputs": [
        {
          "internalType": "bytes32",
          "name": "contentHash",
          "type": "bytes32"
        }
      ],
      "name": "getAttestation",
      "outputs": [
        {
          "components": [
            {
              "internalType": "bool",
              "name": "exists",
              "type": "bool"
            },
            {
              "internalType": "bool",
              "name": "passed",
              "type": "bool"
            },
            {
              "internalType": "uint64",
              "name": "timestamp",
              "type": "uint64"
            },
            {
              "internalType": "address",
              "name": "auditor",
              "type": "address"
            },
            {
              "internalType": "string",
              "name": "reason",
              "type": "string"
            }
          ],
          "internalType": "struct ESGGovernance.Attestation",
          "name": "",
          "type": "tuple"
        }
      ],
      "stateMutability": "view",
      "type": "function"
    },
    {
      "inputs": [
        {
          "internalType": "bytes32",
          "name": "contentHash",
          "type": "bytes32"
        }
      ],
      "name": "getAttestationHistory",
      "outputs": [
        {
          "components": [
            {
              "internalType": "bool",
              "name": "passed",
              "type": "bool"
            },
            {
              "internalType": "uint64",
              "name": "timestamp",
              "type": "uint64"
            },
            {
              "internalType": "address",
              "name": "auditor",
              "type": "address"
            },
            {
              "internalType": "string",
              "name": "action",
              "type": "string"
            },
            {
              "internalType": "string",
              "name": "reason",
              "type": "string"
            }
          ],
          "internalType": "struct ESGGovernance.AttestationHistory[]",
          "name": "",
          "type": "tuple[]"
        }
      ],
      "stateMutability": "view",
      "type": "function"
    },
    {
      "inputs": [
        {
          "internalType": "bytes32",
          "name": "contentHash",
          "type": "bytes32"
        }
      ],
      "name": "getReportStatus",
      "outputs": [
        {
          "internalType": "bool",
          "name": "registered",
          "type": "bool"
        },
        {
          "internalType": "bool",
          "name": "hasAttestation",
          "type": "bool"
        },
        {
          "internalType": "bool",
          "name": "passed",
          "type": "bool"
        },
        {
          "internalType": "address",
          "name": "auditor",
          "type": "address"
        },
        {
          "internalType": "uint64",
          "name": "timestamp",
          "type": "uint64"
        },
        {
          "internalType": "string",
          "name": "reason",
          "type": "string"
        }
      ],
      "stateMutability": "view",
      "type": "function"
    },
    {
      "inputs": [
        {
          "internalType": "bytes32",
          "name": "contentHash",
          "type": "bytes32"
        }
      ],
      "name": "getUploader",
      "outputs": [
        {
          "internalType": "address",
          "name": "",
          "type": "address"
        }
      ],
      "stateMutability": "view",
      "type": "function"
    },
    {
      "inputs": [
        {
          "internalType": "address",
          "name": "",
          "type": "address"
        }
      ],
      "name": "isAuditor",
      "outputs": [
        {
          "internalType": "bool",
          "name": "",
          "type": "bool"
        }
      ],
      "stateMutability": "view",
      "type": "function"
    },
    {
      "inputs": [],
      "name": "owner",
      "outputs": [
        {
          "internalType": "address",
          "name": "",
          "type": "address"
        }
      ],
      "stateMutability": "view",
      "type": "function"
    },
    {
      "inputs": [
        {
          "internalType": "bytes32",
          "name": "contentHash",
          "type": "bytes32"
        }
      ],
      "name": "registerContent",
      "outputs": [],
      "stateMutability": "nonpayable",
      "type": "function"
    },
    {
      "inputs": [
        {
          "internalType": "bytes32",
          "name": "contentHash",
          "type": "bytes32"
        },
        {
          "internalType": "string",
          "name": "reason",
          "type": "string"
        }
      ],
      "name": "revokeAttestation",
      "outputs": [],
      "stateMutability": "nonpayable",
      "type": "function"
    },
    {
      "inputs": [],
      "name": "rewardAmount",
      "outputs": [
        {
          "internalType": "uint256",
          "name": "",
          "type": "uint256"
        }
      ],
      "stateMutability": "view",
      "type": "function"
    },
    {
      "inputs": [],
      "name": "rewardToken",
      "outputs": [
        {
          "internalType": "contract IGreenToken",
          "name": "",
          "type": "address"
        }
      ],
      "stateMutability": "view",
      "type": "function"
    },
    {
      "inputs": [
        {
          "internalType": "address",
          "name": "auditor",
          "type": "address"
        },
        {
          "internalType": "bool",
          "name": "allowed",
          "type": "bool"
        }
      ],
      "name": "setAuditor",
      "outputs": [],
      "stateMutability": "nonpayable",
      "type": "function"
    },
    {
      "inputs": [
        {
          "internalType": "uint256",
          "name": "amount",
          "type": "uint256"
        }
      ],
      "name": "setRewardAmount",
      "outputs": [],
      "stateMutability": "nonpayable",
      "type": "function"
    },
    {
      "inputs": [
        {
          "internalType": "address",
          "name": "tokenAddr",
          "type": "address"
        }
      ],
      "name": "setRewardToken",
      "outputs": [],
      "stateMutability": "nonpayable",
      "type": "function"
    },
    {
      "inputs": [
        {
          "internalType": "address",
          "name": "newOwner",
          "type": "address"
        }
      ],
      "name": "transferOwnership",
      "outputs": [],
      "stateMutability": "nonpayable",
      "type": "function"
    },
    {
      "inputs": [
        {
          "internalType": "bytes32",
          "name": "contentHash",
          "type": "bytes32"
        }
      ],
      "name": "verifyContent",
      "outputs": [
        {
          "internalType": "bool",
          "name": "",
          "type": "bool"
        }
      ],
      "stateMutability": "view",
      "type": "function"
    }
  ],
  "bytecode": "0x6080604052678ac7230489e8000060075534801561001c57600080fd5b5033600260006101000a81548173ffffffffffffffffffffffffffffffffffffffff021916908373ffffffffffffffffffffffffffffffffffffffff1602179055503373ffffffffffffffffffffffffffffffffffffffff16600073ffffffffffffffffffffffffffffffffffffffff167f8934ce4adea8d9ce0d714d2c22b86790e41b7731c84b926fbbdc1d40ff6533c960405160405180910390a3612bb2806100c86000396000f3fe608060405234801561001057600080fd5b50600436106101005760003560e01c80638aee812711610097578063f2fde38b11610066578063f2fde38b146102d4578063f7b2a7be146102f0578063f7c618c11461030e578063facac2a01461032c57610100565b80638aee81271461024e5780638da5cb5b1461026a578063a3112a6414610288578063a8a65a78146102b857610100565b80634a529fba116100d35780634a529fba146101b15780634fe4419d146101e15780637795024f14610216578063790880871461023257610100565b80631e92a4dd14610105578063271011c514610135578063430fe7591461015157806349b9055714610181575b600080fd5b61011f600480360381019061011a9190611cf3565b610348565b60405161012c9190611d61565b60405180910390f35b61014f600480360381019061014a9190611de1565b610385565b005b61016b60048036038101906101669190611cf3565b6108e8565b6040516101789190611e5c565b60405180910390f35b61019b60048036038101906101969190611ea3565b610911565b6040516101a89190611e5c565b60405180910390f35b6101cb60048036038101906101c69190611cf3565b610931565b6040516101d891906120e0565b60405180910390f35b6101fb60048036038101906101f69190611cf3565b610b6a565b60405161020d9695949392919061215b565b60405180910390f35b610230600480360381019061022b91906121ef565b610d35565b005b61024c60048036038101906102479190611cf3565b610edd565b005b61026860048036038101906102639190611ea3565b611051565b005b610272611168565b60405161027f9190611d61565b60405180910390f35b6102a2600480360381019061029d9190611cf3565b61118e565b6040516102af91906122a5565b60405180910390f35b6102d260048036038101906102cd91906122fd565b61130b565b005b6102ee60048036038101906102e99190611ea3565b6113dc565b005b6102f861159b565b6040516103059190612339565b60405180910390f35b6103166115a1565b60405161032391906123b3565b60405180910390f35b610346600480360381019061034191906123ce565b6115c7565b005b60006001600083815260200190815260200160002060009054906101000a900473ffffffffffffffffffffffffffffffffffffffff169050919050565b600360003373ffffffffffffffffffffffffffffffffffffffff1673ffffffffffffffffffffffffffffffffffffffff16815260200190815260200160002060009054906101000a900460ff16610411576040517f08c379a00000000000000000000000000000000000000000000000000000000081526004016104089061248e565b60405180910390fd5b6000600460008581526020019081526020016000206040518060a00160405290816000820160009054906101000a900460ff161515151581526020016000820160019054906101000a900460ff161515151581526020016000820160029054906101000a900467ffffffffffffffff1667ffffffffffffffff1667ffffffffffffffff16815260200160008201600a9054906101000a900473ffffffffffffffffffffffffffffffffffffffff1673ffffffffffffffffffffffffffffffffffffffff1673ffffffffffffffffffffffffffffffffffffffff1681526020016001820180546104ff906124dd565b80601f016020809104026020016040519081016040528092919081815260200182805461052b906124dd565b80156105785780601f1061054d57610100808354040283529160200191610578565b820191906000526020600020905b81548152906001019060200180831161055b57829003601f168201915b505050505081525050905080600001516105c7576040517f08c379a00000000000000000000000000000000000000000000000000000000081526004016105be9061255a565b60405180910390fd5b3373ffffffffffffffffffffffffffffffffffffffff16816060015173ffffffffffffffffffffffffffffffffffffffff1614610639576040517f08c379a0000000000000000000000000000000000000000000000000000000008152600401610630906125c6565b60405180910390fd5b600560008581526020019081526020016000206040518060a001604052808360200151151581526020014267ffffffffffffffff1681526020013373ffffffffffffffffffffffffffffffffffffffff1681526020016040518060400160405280600681526020017f5245564f4b450000000000000000000000000000000000000000000000000000815250815260200185858080601f016020809104026020016040519081016040528093929190818152602001838380828437600081840152601f19601f82011690508083019250505050505050815250908060018154018082558091505060019003906000526020600020906003020160009091909190915060008201518160000160006101000a81548160ff02191690831515021790555060208201518160000160016101000a81548167ffffffffffffffff021916908367ffffffffffffffff16021790555060408201518160000160096101000a81548173ffffffffffffffffffffffffffffffffffffffff021916908373ffffffffffffffffffffffffffffffffffffffff16021790555060608201518160010190816107e691906127b7565b5060808201518160020190816107fc91906127b7565b50505060046000858152602001908152602001600020600080820160006101000a81549060ff02191690556000820160016101000a81549060ff02191690556000820160026101000a81549067ffffffffffffffff021916905560008201600a6101000a81549073ffffffffffffffffffffffffffffffffffffffff021916905560018201600061088d9190611c03565b50503373ffffffffffffffffffffffffffffffffffffffff16847ffe012606c0dd0feacd60f2e459c7520af329f8ef33f2767eb0cf84e2408cac0e8585426040516108da939291906128c5565b60405180910390a350505050565b600080600083815260200190815260200160002060009054906101000a900460ff169050919050565b60036020528060005260406000206000915054906101000a900460ff1681565b606060056000838152602001908152602001600020805480602002602001604051908101604052809291908181526020016000905b82821015610b5f57838290600052602060002090600302016040518060a00160405290816000820160009054906101000a900460ff161515151581526020016000820160019054906101000a900467ffffffffffffffff1667ffffffffffffffff1667ffffffffffffffff1681526020016000820160099054906101000a900473ffffffffffffffffffffffffffffffffffffffff1673ffffffffffffffffffffffffffffffffffffffff1673ffffffffffffffffffffffffffffffffffffffff168152602001600182018054610a3c906124dd565b80601f0160208091040260200160405190810160405280929190818152602001828054610a68906124dd565b8015610ab55780601f10610a8a57610100808354040283529160200191610ab5565b820191906000526020600020905b815481529060010190602001808311610a9857829003601f168201915b50505050508152602001600282018054610ace906124dd565b80601f0160208091040260200160405190810160405280929190818152602001828054610afa906124dd565b8015610b475780601f10610b1c57610100808354040283529160200191610b47565b820191906000526020600020905b815481529060010190602001808311610b2a57829003601f168201915b50505050508152505081526020019060010190610966565b505050509050919050565b6000806000806000606060008088815260200190815260200160002060009054906101000a900460ff1695506000600460008981526020019081526020016000206040518060a00160405290816000820160009054906101000a900460ff161515151581526020016000820160019054906101000a900460ff161515151581526020016000820160029054906101000a900467ffffffffffffffff1667ffffffffffffffff1667ffffffffffffffff16815260200160008201600a9054906101000a900473ffffffffffffffffffffffffffffffffffffffff1673ffffffffffffffffffffffffffffffffffffffff1673ffffffffffffffffffffffffffffffffffffffff168152602001600182018054610c84906124dd565b80601f0160208091040260200160405190810160405280929190818152602001828054610cb0906124dd565b8015610cfd5780601f10610cd257610100808354040283529160200191610cfd565b820191906000526020600020905b815481529060010190602001808311610ce057829003601f168201915b505050505081525050905080600001519550806020015194508060600151935080604001519250806080015191505091939550919395565b600260009054906101000a900473ffffffffffffffffffffffffffffffffffffffff1673ffffffffffffffffffffffffffffffffffffffff163373ffffffffffffffffffffffffffffffffffffffff1614610dc5576040517f08c379a0000000000000000000000000000000000000000000000000000000008152600401610dbc90612943565b60405180910390fd5b600073ffffffffffffffffffffffffffffffffffffffff168273ffffffffffffffffffffffffffffffffffffffff1603610e34576040517f08c379a0000000000000000000000000000000000000000000000000000000008152600401610e2b906129af565b60405180910390fd5b80600360008473ffffffffffffffffffffffffffffffffffffffff1673ffffffffffffffffffffffffffffffffffffffff16815260200190815260200160002060006101000a81548160ff0219169083151502179055508173ffffffffffffffffffffffffffffffffffffffff167f647ad5be19f92be4d7a13bf422f45c2655249742e6d5cb29c9df42b55b9e1c3e82604051610ed19190611e5c565b60405180910390a25050565b6000801b8103610f22576040517f08c379a0000000000000000000000000000000000000000000000000000000008152600401610f1990612a1b565b60405180910390fd5b60008082815260200190815260200160002060009054906101000a900460ff1615610f82576040517f08c379a0000000000000000000000000000000000000000000000000000000008152600401610f7990612a87565b60405180910390fd5b600160008083815260200190815260200160002060006101000a81548160ff021916908315150217905550336001600083815260200190815260200160002060006101000a81548173ffffffffffffffffffffffffffffffffffffffff021916908373ffffffffffffffffffffffffffffffffffffffff1602179055503373ffffffffffffffffffffffffffffffffffffffff16817f3ff3aaa3fce5f7a47cba1edd754938a8d517b12eaf17ebe3f2fcbb2851d3f4c9426040516110469190612339565b60405180910390a350565b600260009054906101000a900473ffffffffffffffffffffffffffffffffffffffff1673ffffffffffffffffffffffffffffffffffffffff163373ffffffffffffffffffffffffffffffffffffffff16146110e1576040517f08c379a00000000000000000000000000000000000000000000000000000000081526004016110d890612943565b60405180910390fd5b80600660006101000a81548173ffffffffffffffffffffffffffffffffffffffff021916908373ffffffffffffffffffffffffffffffffffffffff1602179055508073ffffffffffffffffffffffffffffffffffffffff167f2d6b04df9b7d358407d1a014f1114b064add34c19d63d395db155a7e533e967a60405160405180910390a250565b600260009054906101000a900473ffffffffffffffffffffffffffffffffffffffff1681565b611196611c43565b600460008381526020019081526020016000206040518060a00160405290816000820160009054906101000a900460ff161515151581526020016000820160019054906101000a900460ff161515151581526020016000820160029054906101000a900467ffffffffffffffff1667ffffffffffffffff1667ffffffffffffffff16815260200160008201600a9054906101000a900473ffffffffffffffffffffffffffffffffffffffff1673ffffffffffffffffffffffffffffffffffffffff1673ffffffffffffffffffffffffffffffffffffffff168152602001600182018054611282906124dd565b80601f01602080910402602001604051908101604052809291908181526020018280546112ae906124dd565b80156112fb5780601f106112d0576101008083540402835291602001916112fb565b820191906000526020600020905b8154815290600101906020018083116112de57829003601f168201915b5050505050815250509050919050565b600260009054906101000a900473ffffffffffffffffffffffffffffffffffffffff1673ffffffffffffffffffffffffffffffffffffffff163373ffffffffffffffffffffffffffffffffffffffff161461139b576040517f08c379a000000000000000000000000000000000000000000000000000000000815260040161139290612943565b60405180910390fd5b806007819055507f33c27d08ddd6cb9830b4dc83ccd96d57c842bd0cbaf6b1352c2c13577cfed12a816040516113d19190612339565b60405180910390a150565b600260009054906101000a900473ffffffffffffffffffffffffffffffffffffffff1673ffffffffffffffffffffffffffffffffffffffff163373ffffffffffffffffffffffffffffffffffffffff161461146c576040517f08c379a000000000000000000000000000000000000000000000000000000000815260040161146390612943565b60405180910390fd5b600073ffffffffffffffffffffffffffffffffffffffff168173ffffffffffffffffffffffffffffffffffffffff16036114db576040517f08c379a00000000000000000000000000000000000000000000000000000000081526004016114d2906129af565b60405180910390fd5b8073ffffffffffffffffffffffffffffffffffffffff16600260009054906101000a900473ffffffffffffffffffffffffffffffffffffffff1673ffffffffffffffffffffffffffffffffffffffff167f8934ce4adea8d9ce0d714d2c22b86790e41b7731c84b926fbbdc1d40ff6533c960405160405180910390a380600260006101000a81548173ffffffffffffffffffffffffffffffffffffffff021916908373ffffffffffffffffffffffffffffffffffffffff16021790555050565b60075481565b600660009054906101000a900473ffffffffffffffffffffffffffffffffffffffff1681565b600360003373ffffffffffffffffffffffffffffffffffffffff1673ffffffffffffffffffffffffffffffffffffffff16815260200190815260200160002060009054906101000a900460ff16611653576040517f08c379a000000000000000000000000000000000000000000000000000000000815260040161164a9061248e565b60405180910390fd5b60008085815260200190815260200160002060009054906101000a900460ff166116b2576040517f08c379a00000000000000000000000000000000000000000000000000000000081526004016116a990612af3565b60405180910390fd5b6040518060a0016040528060011515815260200184151581526020014267ffffffffffffffff1681526020013373ffffffffffffffffffffffffffffffffffffffff16815260200183838080601f016020809104026020016040519081016040528093929190818152602001838380828437600081840152601f19601f820116905080830192505050505050508152506004600086815260200190815260200160002060008201518160000160006101000a81548160ff02191690831515021790555060208201518160000160016101000a81548160ff02191690831515021790555060408201518160000160026101000a81548167ffffffffffffffff021916908367ffffffffffffffff160217905550606082015181600001600a6101000a81548173ffffffffffffffffffffffffffffffffffffffff021916908373ffffffffffffffffffffffffffffffffffffffff160217905550608082015181600101908161182091906127b7565b50905050600560008581526020019081526020016000206040518060a0016040528085151581526020014267ffffffffffffffff1681526020013373ffffffffffffffffffffffffffffffffffffffff1681526020016040518060400160405280600681526020017f4154544553540000000000000000000000000000000000000000000000000000815250815260200184848080601f016020809104026020016040519081016040528093929190818152602001838380828437600081840152601f19601f82011690508083019250505050505050815250908060018154018082558091505060019003906000526020600020906003020160009091909190915060008201518160000160006101000a81548160ff02191690831515021790555060208201518160000160016101000a81548167ffffffffffffffff021916908367ffffffffffffffff16021790555060408201518160000160096101000a81548173ffffffffffffffffffffffffffffffffffffffff021916908373ffffffffffffffffffffffffffffffffffffffff16021790555060608201518160010190816119cd91906127b7565b5060808201518160020190816119e391906127b7565b5050503373ffffffffffffffffffffffffffffffffffffffff16847f98ae83f57b198a62fbfe61c135c615b7a97c0663fbb88d96d3508c336f7bc7bf85858542604051611a339493929190612b13565b60405180910390a38215611bfd5760006001600086815260200190815260200160002060009054906101000a900473ffffffffffffffffffffffffffffffffffffffff169050600073ffffffffffffffffffffffffffffffffffffffff168173ffffffffffffffffffffffffffffffffffffffff1614158015611b055750600073ffffffffffffffffffffffffffffffffffffffff16600660009054906101000a900473ffffffffffffffffffffffffffffffffffffffff1673ffffffffffffffffffffffffffffffffffffffff1614155b8015611b1357506000600754115b15611bfb57600660009054906101000a900473ffffffffffffffffffffffffffffffffffffffff1673ffffffffffffffffffffffffffffffffffffffff166340c10f19826007546040518363ffffffff1660e01b8152600401611b77929190612b53565b600060405180830381600087803b158015611b9157600080fd5b505af1158015611ba5573d6000803e3d6000fd5b505050508073ffffffffffffffffffffffffffffffffffffffff16857f45a9b25eb22877783b22873a81ab6e03cff8a14dbe2013660999213bdc4067b1600754604051611bf29190612339565b60405180910390a35b505b50505050565b508054611c0f906124dd565b6000825580601f10611c215750611c40565b601f016020900490600052602060002090810190611c3f9190611c96565b5b50565b6040518060a00160405280600015158152602001600015158152602001600067ffffffffffffffff168152602001600073ffffffffffffffffffffffffffffffffffffffff168152602001606081525090565b5b80821115611caf576000816000905550600101611c97565b5090565b600080fd5b600080fd5b6000819050919050565b611cd081611cbd565b8114611cdb57600080fd5b50565b600081359050611ced81611cc7565b92915050565b600060208284031215611d0957611d08611cb3565b5b6000611d1784828501611cde565b91505092915050565b600073ffffffffffffffffffffffffffffffffffffffff82169050919050565b6000611d4b82611d20565b9050919050565b611d5b81611d40565b82525050565b6000602082019050611d766000830184611d52565b92915050565b600080fd5b600080fd5b600080fd5b60008083601f840112611da157611da0611d7c565b5b8235905067ffffffffffffffff811115611dbe57611dbd611d81565b5b602083019150836001820283011115611dda57611dd9611d86565b5b9250929050565b600080600060408486031215611dfa57611df9611cb3565b5b6000611e0886828701611cde565b935050602084013567ffffffffffffffff811115611e2957611e28611cb8565b5b611e3586828701611d8b565b92509250509250925092565b60008115159050919050565b611e5681611e41565b82525050565b6000602082019050611e716000830184611e4d565b92915050565b611e8081611d40565b8114611e8b57600080fd5b50565b600081359050611e9d81611e77565b92915050565b600060208284031215611eb957611eb8611cb3565b5b6000611ec784828501611e8e565b91505092915050565b600081519050919050565b600082825260208201905092915050565b6000819050602082019050919050565b611f0581611e41565b82525050565b600067ffffffffffffffff82169050919050565b611f2881611f0b565b82525050565b611f3781611d40565b82525050565b600081519050919050565b600082825260208201905092915050565b60005b83811015611f77578082015181840152602081019050611f5c565b60008484015250505050565b6000601f19601f8301169050919050565b6000611f9f82611f3d565b611fa98185611f48565b9350611fb9818560208601611f59565b611fc281611f83565b840191505092915050565b600060a083016000830151611fe56000860182611efc565b506020830151611ff86020860182611f1f565b50604083015161200b6040860182611f2e565b50606083015184820360608601526120238282611f94565b9150506080830151848203608086015261203d8282611f94565b9150508091505092915050565b60006120568383611fcd565b905092915050565b6000602082019050919050565b600061207682611ed0565b6120808185611edb565b93508360208202850161209285611eec565b8060005b858110156120ce57848403895281516120af858261204a565b94506120ba8361205e565b925060208a01995050600181019050612096565b50829750879550505050505092915050565b600060208201905081810360008301526120fa818461206b565b905092915050565b61210b81611f0b565b82525050565b600082825260208201905092915050565b600061212d82611f3d565b6121378185612111565b9350612147818560208601611f59565b61215081611f83565b840191505092915050565b600060c0820190506121706000830189611e4d565b61217d6020830188611e4d565b61218a6040830187611e4d565b6121976060830186611d52565b6121a46080830185612102565b81810360a08301526121b68184612122565b9050979650505050505050565b6121cc81611e41565b81146121d757600080fd5b50565b6000813590506121e9816121c3565b92915050565b6000806040838503121561220657612205611cb3565b5b600061221485828601611e8e565b9250506020612225858286016121da565b9150509250929050565b600060a0830160008301516122476000860182611efc565b50602083015161225a6020860182611efc565b50604083015161226d6040860182611f1f565b5060608301516122806060860182611f2e565b50608083015184820360808601526122988282611f94565b9150508091505092915050565b600060208201905081810360008301526122bf818461222f565b905092915050565b6000819050919050565b6122da816122c7565b81146122e557600080fd5b50565b6000813590506122f7816122d1565b92915050565b60006020828403121561231357612312611cb3565b5b6000612321848285016122e8565b91505092915050565b612333816122c7565b82525050565b600060208201905061234e600083018461232a565b92915050565b6000819050919050565b600061237961237461236f84611d20565b612354565b611d20565b9050919050565b600061238b8261235e565b9050919050565b600061239d82612380565b9050919050565b6123ad81612392565b82525050565b60006020820190506123c860008301846123a4565b92915050565b600080600080606085870312156123e8576123e7611cb3565b5b60006123f687828801611cde565b9450506020612407878288016121da565b935050604085013567ffffffffffffffff81111561242857612427611cb8565b5b61243487828801611d8b565b925092505092959194509250565b7f6f6e6c792061756469746f720000000000000000000000000000000000000000600082015250565b6000612478600c83612111565b915061248382612442565b602082019050919050565b600060208201905081810360008301526124a78161246b565b9050919050565b7f4e487b7100000000000000000000000000000000000000000000000000000000600052602260045260246000fd5b600060028204905060018216806124f557607f821691505b602082108103612508576125076124ae565b5b50919050565b7f6e6f206174746573746174696f6e000000000000000000000000000000000000600082015250565b6000612544600e83612111565b915061254f8261250e565b602082019050919050565b6000602082019050818103600083015261257381612537565b9050919050565b7f6e6f742074686520617474657374696e672061756469746f7200000000000000600082015250565b60006125b0601983612111565b91506125bb8261257a565b602082019050919050565b600060208201905081810360008301526125df816125a3565b9050919050565b7f4e487b7100000000000000000000000000000000000000000000000000000000600052604160045260246000fd5b60008190508160005260206000209050919050565b60006020601f8301049050919050565b600082821b905092915050565b6000600883026126777fffffffffffffffffffffffffffffffffffffffffffffffffffffffffffffffff8261263a565b612681868361263a565b95508019841693508086168417925050509392505050565b60006126b46126af6126aa846122c7565b612354565b6122c7565b9050919050565b6000819050919050565b6126ce83612699565b6126e26126da826126bb565b848454612647565b825550505050565b600090565b6126f76126ea565b6127028184846126c5565b505050565b5b818110156127265761271b6000826126ef565b600181019050612708565b5050565b601f82111561276b5761273c81612615565b6127458461262a565b81016020851015612754578190505b6127686127608561262a565b830182612707565b50505b505050565b600082821c905092915050565b600061278e60001984600802612770565b1980831691505092915050565b60006127a7838361277d565b9150826002028217905092915050565b6127c082611f3d565b67ffffffffffffffff8111156127d9576127d86125e6565b5b6127e382546124dd565b6127ee82828561272a565b600060209050601f831160018114612821576000841561280f578287015190505b612819858261279b565b865550612881565b601f19841661282f86612615565b60005b8281101561285757848901518255600182019150602085019450602081019050612832565b868310156128745784890151612870601f89168261277d565b8355505b6001600288020188555050505b505050505050565b82818337600083830152505050565b60006128a48385612111565b93506128b1838584612889565b6128ba83611f83565b840190509392505050565b600060408201905081810360008301526128e0818587612898565b90506128ef602083018461232a565b949350505050565b7f6f6e6c79206f776e657200000000000000000000000000000000000000000000600082015250565b600061292d600a83612111565b9150612938826128f7565b602082019050919050565b6000602082019050818103600083015261295c81612920565b9050919050565b7f7a65726f20616464720000000000000000000000000000000000000000000000600082015250565b6000612999600983612111565b91506129a482612963565b602082019050919050565b600060208201905081810360008301526129c88161298c565b9050919050565b7f696e76616c696420686173680000000000000000000000000000000000000000600082015250565b6000612a05600c83612111565b9150612a10826129cf565b602082019050919050565b60006020820190508181036000830152612a34816129f8565b9050919050565b7f616c726561647920726567697374657265640000000000000000000000000000600082015250565b6000612a71601283612111565b9150612a7c82612a3b565b602082019050919050565b60006020820190508181036000830152612aa081612a64565b9050919050565b7f6e6f742072656769737465726564000000000000000000000000000000000000600082015250565b6000612add600e83612111565b9150612ae882612aa7565b602082019050919050565b60006020820190508181036000830152612b0c81612ad0565b9050919050565b6000606082019050612b286000830187611e4d565b8181036020830152612b3b818587612898565b9050612b4a604083018461232a565b95945050505050565b6000604082019050612b686000830185611d52565b612b75602083018461232a565b939250505056fea2646970667358221220db2487fa07a9859016788a0b90ed70fb50d71edef72f26002f4491a688a8b1e764736f6c63430008140033",
  "linkReferences": {},
  "deployedLinkReferences": {}
}